:020000040000FA
:020000001628C0
:040002000034003492
:08000800A6000308A7000B1D70
:1000100012280B1106308107A014AE0B12282015F0
:100020000430AE00270883002608090083168801E3
:100030000F3086000711871053308100C4309F00B5
:100040008312C1309F0088010612861206138613A0
:10005000A201A301A401A5016430A1002011043074
:10006000AE002010A01020160711063081008B165C
:100070008B17861C2012061C2016061DA016861D36
:10008000E620A018C720201D39282011C7309F0561
:100090001330B500B50B4A281F151F194D281E082F
:1000A000AA0083161E088312AB009F151330B500FB
:1000B000B50B58281F151F195B281E08AC008316A6
:1000C0001E088312AD00A01AA020201E6C282C0848
:1000D000A8002D08A90070282A08A8002B08A9004C
:1000E000A201A301A401A5012808B1002908B200BA
:1000F0000330B300E830B400B020A01985282F08E1
:10010000A8003008A900A50A74282808B100290809
:10011000B2000030B3006430B400B020A0199628BB
:100120002F08A8003008A900A40A85280A3029024F
:10013000031C9D28A900A30A96282908A200392893
:1001400087102C08B1002D08B2002A08B3002B0834
:10015000B400B020A019AE28071508000711080048
:10016000A01134083202B000031CA015330831027C
:10017000AF000318BD28A0150800A01D080001301D
:10018000AF02031CC528A0110800A0150800A0108C
:10019000061ED02806122308E920880086160800CB
:1001A000861ED82886122408E92088000617080031
:1001B000061FE02806132508E92088008617080096
:1001C00086132208E920880006160800A01267217D
:1001D000080082073F3406345B344F3466346D3494
:1001E0007D3407347F346F3400349F111F151F197D
:1001F000F7281E08B80083161E088312B900C10133
:100200003808B1003908B2000330B300E830B40058
:10021000B020A01911292F08B8003008B900C10A70
:100220000029C0013808B1003908B2000030B3001D
:100230006430B400B020A01923292F08B80030087A
:10024000B900C00A1229BF010A303902031C2B2948
:10025000B900BF0A24293908BE0008009F151F15E0
:100260001F1930291E08B60083161E088312B70016
:10027000BD013608B1003708B2000330B300E830E2
:10028000B400B020A0194A292F08B6003008B700E2
:10029000BD0A3929BC013608B1003708B200003068
:1002A000B3006430B400B020A0195C292F08B60058
:1002B0003008B700BC0A4B29BB010A303702031CC7
:1002C0006429B700BB0A5D293708BA0008008B1300
:1002D0008B1207110030BD000330BC000630BB009C
:1002E0000030BA00F5201F151F1974291E08A80038
:1002F00083161E088312A9002808B1002908B2003D
:100300000130B3006830B400B020A0199E298714D2
:10031000F5204108A5004008A4003F08A3003E08BE
:10032000A200C72040083C02031D88293F083B0269
:10033000031D88293E083A02031D882987108B1760
:040340008B16080010
:02400E00713F00
:00000001FF
