:1000000000308A00C4280000FF00030E8301A10015
:100010000A08A0008A010408A2007708A300780853
:10002000A4007908A5007A08A600831383128B1E0A
:100030001B280B192C28220884002308F700240809
:10004000F8002508F9002608FA0020088A00210E89
:100050008300FF0E7F0E09008A110A122F28281430
:10006000A70B3528A8146430A7000B118A110A12B7
:100070001B282810061E532807308316860083127B
:100080000612293034078400831380300007B7003C
:10009000831688018312370888000730831686008C
:1000A000831286169828861E6B28073083168600D2
:1000B0008312861229303507840083130008B700A5
:1000C000831688018312370888000730831686005C
:1000D000831206179828061F832807308316860088
:1000E0008312061329303607840083130008B700F3
:1000F000831688018312370888000730831686002C
:100100008312861798280730831686008312861379
:1001100029303307840083130008B7008316880151
:10012000831237088800073083168600831206166C
:100130008A110A12F928A81CB928A810B30A330892
:10014000093C0318B928B301B40A3408093C031860
:10015000B928B401B50A3508093C0318B928B50116
:10016000B60A3608093C0318B928B601B501B4012E
:10017000B3018A110A120029B301B401B501B60115
:10018000A8108A110A12042903081F398300643059
:10019000A7002810A810281583161F149F141F15D8
:1001A0009F1107309C0083133F308312A900063053
:1001B000AA005B30AB004F30AC006630AD006D3054
:1001C000AE007D30AF000730B0007F30B1006F303F
:1001D000B20083160108C0390238810083128B16E1
:1001E000C0308B0407308316860083120616281849
:1001F0003928061C281128190129861C28159B2836
:0C0200000429A810061DBC28F728630084
:02400E00B23FBF
:00000001FF
;PIC16F877A
;CRC=5292  CREATED="30-mai-24 18:31"
