:020000040000FA
:100000008316003086008312A1012010A010362034
:10001000851C3228051D152820103230A200851DB0
:100020002228A0103230A300082820180F28A20B85
:100030000F282014A10A0A3021020318A101210867
:1000400036200F28A0180828A30B0828A014013078
:10005000210203182E280930A1002F28A100210811
:1000600036200828A1018001362008283920860082
:1000700008008207FE343834DD347D343B34773475
:08008000F7343C34FF347F34F7
:04008800003400340C
:02400E00703F01
:00000001FF
