:1000000008308A0000280000FF00030E8301A100D1
:100010000A08A0008A010408A2007708A300780853
:10002000A4007908A5007A08A60003170D08031399
:10003000A70003170F080313A80003170C080313E6
:10004000A90003170E080313AA00831383128B1E43
:100050002B280B194C28220884002308F7002408B9
:10006000F8002508F9002608FA00270803178D0074
:100070000313280803178F000313290803178C00A4
:1000800003132A0803178E00031320088A00210E89
:100090008300FF0E7F0E09008A110A124F28AC0B55
:1000A00054282B141E30AC000B118A110A122B2875
:1000B000C834733A2E005108003A03196C28013AEB
:1000C00003197228033A03197828013A03197F2883
:1000D000073A031985288D28831685018312520853
:1000E00085008D28831686018312520886008D288C
:1000F000F930831687008312520887008D288316F3
:1001000088018312520888008D28831609108910EF
:1001100009118312520889008D2808001A30F7004F
:10012000F70B90280000831609108312091083161C
:100130000911831209110330D1004708D2005B2056
:1001400083168910831289141A30F700F70BA6283A
:100150000000831689108312891008004330840040
:10016000831300080319C1280230F800F701F70BC8
:10017000B728F80BB6289730F700F70BBD28800B8F
:10018000B428080083168910831289103830C700FC
:100190008E200F30C300AE200130C7008E200A3001
:1001A000C300AE200C30C7008E200A30C300AE2042
:1001B0000630C7008E200A30C300AE208A150A120E
:1001C0003528440BE428E7284030C500E828C5015D
:1001D00001304302C50745088038C600C7008E209D
:1001E00008001A30F700F70BF328000083160910F7
:1001F0008312091483160911831209110330D100E7
:100200005008D2005B2083168910831289141A309B
:10021000F700F70B09290000831689108312891053
:100220000800CB010408CA004B10831B4B14440E7A
:10023000F038C600C607E23EC700323EC900440897
:100240000F39C707C707C907E93EC800C807C8076D
:10025000430E0F39C807C907C80DC90DC909C90D13
:1002600043080F39C907C60D0730C5000A30C90752
:10027000C803031C3729C807C703031C3B29C7074A
:10028000C603031C3F29C607C503031C4329453089
:100290008400831307304A054A1384074930040257
:1002A00003194A170008F700031D5E294A1B5E293F
:1002B0004A1A7029CA195E2920306129CA154A12C2
:1002C0003030F707C4010408C3004410831B4414F2
:1002D0007708D000F1204308840083134418831763
:1002E000840A4A1F4E2908000130C300C400E120DF
:1002F0005330D000F1207030D000F1203A30D000DF
:10030000F1200130C3000230C400E1205430D0009D
:10031000F1207030D000F1203A30D000F1200930C7
:10032000C3000130C400E1204630D000F1206E301F
:10033000D000F1203A30D000F1200930C300023063
:10034000C400E1204830D000F1207430D000F1200A
:100350003A30D000F1200F30C3000230C400E12059
:100360004F30D000F1206630D000F1200C30C300B7
:100370000130C400E1204F30D000F1206630D000C1
:10038000F1200C30C3000230C400E1204F30D00017
:10039000F1206630D000F1200430C3000230C400E8
:1003A000E120013084003408C4003308C300112167
:1003B0000430C3000130C400E12001308400320861
:1003C000C4003108C300112108008E30F700440832
:1003D000F8004308F900FA01F808031DF929790823
:1003E000F800F9010830F702F808031DF929F701B0
:1003F000012A0310F81B002AF90DF80DF703F9295B
:10040000F813080050080319722AD8005408031979
:10041000722AD8070318132A7F30D802031C722AC5
:100420000319722A172A8130D8070318722A58082C
:10043000F700F801F901FA015108DC00DC17520855
:10044000DB005308DA001830D800D9015A1C402AC2
:100450005708FA07031C322AF90A031D322AF80A40
:100460000319D9175608F907031C392AF80A031982
:10047000D9175508D200D2175208F8070318D91710
:10048000D90DF80CF90CFA0CDC0CDB0CDA0C0310AF
:10049000D80B252A0130F7070318722AF81B572AB0
:1004A000DC0DFA0DF90DF80DF7030319722ADC1FA4
:1004B000682AFA0A031D682AF90A031D682AF80A3D
:1004C000031D682AF80CF90CFA0CF70A0319722AB2
:1004D0005108D9005508D906D91F702AF817762A6D
:1004E000F813762AF701F801F901FA0108008030C3
:1004F0008318CC06D101D2014808D0004C08D006A0
:1005000047080319672BCF00F7004B080319702B1E
:10051000CF0203190C2B031CCA2A4C08D500D5178F
:100520004D08D4004E08D300D2010310D50CD40CD2
:10053000D30CD20CCF0B942AD01FA12A5114842B98
:1005400051104F1051164A3084008313992B5112C9
:10055000D01BB42A4F1CBF2AD50CD40CD30CD20C00
:10056000F70A03197F2BBF2AD51BC22A0310D20D0D
:10057000D30DD40DD50DF70303197F2BB42A5117D2
:100580002C2B51134808D000D01FC82AD517782B20
:10059000D513782B4B08CF00F7004708CF02480847
:1005A000D500D5174908D4004A08D300D20103105A
:1005B000D50CD40CD30CD20CCF0BD62AD01FE32AE7
:1005C000D114842BD1104F10D1164E3084008313D8
:1005D000992BD112D01BF62A4F1C012BD50CD40C11
:1005E000D30CD20CF70A03197F2B012BD51B042B3C
:1005F0000310D20DD30DD40DD50DF70303197F2BA6
:10060000F62AD1172C2BD1134C08D000D01F0A2B5F
:10061000D517782BD513782B4C08D500D5174D0856
:10062000D4004E08D300D01F192BD5135115842B9D
:100630005111D2014F104A3084008313992BD01BE3
:10064000422B4808D0004F1C2C2BD50CD40CD30CBB
:10065000D20CF70A03197F2BD21F3D2BD30A031D9F
:100660003D2BD40A031D3D2BD50A031D3D2BD50C74
:10067000D40CD30CF70A03197F2B511BC12AD11BB1
:10068000032B612B8030D506D51F4A2B842B4C08B9
:10069000D000572B4808D000D508031D572BD4088D
:1006A000031D572BD308031D572BF701782BD51BA0
:1006B000612B0310D20DD30DD40DD50DF70B572B95
:1006C0007F2BD01F652BD517782BD513782B4B0894
:1006D000F7004C08D5004D08D4004E08D300782B05
:1006E0004708F7004808D5004908D4004A08D30055
:1006F0005508F8005408F9005308FA00B72BF70121
:10070000F801F901FA01B72BD201D309D409D509AF
:10071000D209D20A031D922BD30A031D922BD40AAD
:100720000319D50A5118A02AD118E22A5119182BF9
:10073000472B0008D307031CA32BD40A031DA32BAC
:10074000D50A03194F1484030008D407031CAB2BEC
:10075000D50A03194F1484030008801F803AD50777
:1007600003184F14511AA72AD11AE92A1F2B08007F
:100770002B100030F8001F08C73978049F001A308A
:10078000F700F70BC12B00001F151F19C52B83168F
:100790001E088312B3001E08B4003408C4003308D6
:1007A000C300E5218F30D300C230D2007530D100B4
:1007B0007B30D0007A08D7007908D6007808D500B9
:1007C0007708D40002227A08C6007908C5007808A4
:1007D000C4007708C30083147A08CA007908C900E6
:1007E0007808C8007708C700EC30CE005130CD0043
:1007F0004830CC008230CB0077227A08BC007908E0
:10080000BB007808BA007708B9000830F8001F0864
:10081000C73978049F001A30F700F70B0D2C000041
:100820001F151F19112C83161E088312B1001E08F4
:10083000B2003208C4003108C300E5218F30D30074
:10084000C230D2007530D1007B30D0007A08D7009A
:100850007908D6007808D5007708D40002227A08F3
:10086000C6007908C5007808C4007708C30083145F
:100870007A08CA007908C9007808C8007708C70054
:10088000EC30CE005130CD004830CC008230CB006F
:1008900077227A08B8007908B7007808B600770898
:1008A000B5008A150A123D288318592C5830840047
:1008B0008313F701F801F901FA01D801D901DA012E
:1008C000DB0157085604550454040319972C2030B3
:1008D000DC000310D00DD10DD20DD30DD80DD90DE4
:1008E000DA0DDB0D57085B02031D802C56085A02F7
:1008F000031D802C55085902031D802C54085802F2
:10090000031C912C5408D8025508031C550FD9021A
:100910005608031C560FDA025708031C570FDB0258
:100920000314F70DF80DF90DFA0DDC0B692C5808BE
:100930008000840A59088000840A5A088000840ACA
:100940005B08800008000408C8004708CA000319B3
:10095000C22C4608D3004508D2004408D100430801
:10096000D000D701D6012030D5008230D400022239
:100970007A08C6007908C5007808C4007708C30063
:10098000CA0BA92C4608D3004508D2004408D10060
:100990004308D0005008B63CD000FA015108D400FA
:1009A000D1170310D10CD20CD30CFA0CF90CF80CA3
:1009B000F70CD00BD12CD41FE82CF709F809F90952
:1009C000FA09F70A0319F80A0319F90A0319FA0AC6
:1009D0007A08C6007908C5007808C4007708C30003
:1009E000C61FFF2CC803C816C309C409C509C60918
:1009F000C30A0319C40A0319C50A0319C60A3B30FE
:100A0000CF009A30CE00CA30CD00CC010A30CA00E7
:100A100047080319C80A8314433084008313460827
:100A2000D3004508D2004408D1004308D0004F0845
:100A3000D7004E08D6004D08D5004C08D4005424E9
:100A40007808F708031D372D470A4A020319372D86
:100A500048080319392D0F394A020319312D03189B
:100A6000692DC81B692D481B392D2030652D20307C
:100A7000C805C81E472DC8124708031DC8037708BC
:100A8000C8002D30D000F1204808F700C801470801
:100A90004A02031D552D7708C8002E30D000F120E2
:100AA0004808F7002030C80500303030C81E652DDA
:100AB000C8124708031DC8037708C8002D30D000AE
:100AC000F1204808F700C8013030F7077708D00058
:100AD000F12083104F08D3004E08D2004D08D100FA
:100AE0004C08D000D701D601D5010A30D4005424D7
:100AF0007A08CF007908CE007808CD007708CC00BE
:100B0000CA0B0B2D08000130C300C400E120533094
:100B1000D000F1205030D000F1203A30D000F12048
:100B20000130C3000230C400E1205430D000F12075
:100B30005030D000F1203A30D000F1200930C3000D
:100B40000130C400E1200C30C3000130C400E120BA
:100B5000583003178D0000308F0003130B08C300BB
:100B60008B13831603178C170C14000000008312DC
:100B70000313C31B8B1703170C087F390319002EAF
:100B80000313C30003170D080313C40003170F0852
:100B90000313C5004308D000F120440803178D005B
:100BA0000313450803178F0003130B08C6008B13AC
:100BB000831603178C170C14000000008312031314
:100BC000C61B8B1703170C0D0E0D7F390319002E52
:100BD0000313C30003170D080313C40003170F0802
:100BE0000313C5004308D000F120440803178D000B
:100BF0000313450803178F008D0A03198F0AAD2DC3
:100C00000C300313C3000230C400E120C93084005B
:100C10003008C6002F08C5002E08C4002D08C300E8
:100C20000230C700A3244330D000F1200430C300B9
:100C30000230C400E120C93084003C08C6003B08F3
:100C4000C5003A08C4003908C3000230C700A32415
:100C50004330D000F1200430C3000130C400E12053
:100C6000C93084003808C6003708C5003608C400FB
:100C70003508C3000230C700A3244330D000F12060
:100C80008A150A1247284808CF004C08CF06CF1F04
:100C90004E2E03110310C81B0314812E4808CF00E9
:100CA0004B08D0004708D00203195C2ECF1F812EBD
:100CB0000308013A8300812E4C08D0004808D00276
:100CC0000319682ECF1F812E0308013A8300812E5D
:100CD0004D08D0004908D0020319742ECF1F812E71
:100CE0000308013A8300812E4E08D0004A08D00242
:100CF0000319802ECF1F812E0308013A8300812E15
:040D000003100800D4
:1010000003081F3983002B10AB102B116630B00082
:10101000AF001E30AE008230AD00C201C1018316A8
:101020001F149F141F159F1107309C0083131F105E
:101030009F101F159F111F1383121F179F178316D1
:101040009F1783121F1483160108C03903388100CB
:1010500083122B13AB122B12AB11AB131E30AC004F
:101060008B16C0308B048A11C2288A158A1174210C
:101070008A152B1C47288A11B82B8A15AB1F4428C8
:101080008A11832D8A1547288A1174218A1583169F
:101090000614831206186128AB196028BD0B60285E
:1010A000AB15AB185528AB146028AB102B11F930D9
:1010B0008316870083120711831687008312871017
:1010C0006428AB111E30BD00831606158312061965
:1010D0009F282B1A9E28BE0B9E282B163008CA006C
:1010E0002F08C9002E08C8002D08C7006630CE00A2
:1010F000CD001E30CC008230CB008A1143268A15E9
:10110000031C9E2883103008CA002F08C9002E082F
:10111000C8002D08C700CD30CE00CC30CD004C30FB
:10112000CC007B30CB008A1177228A157A08B00078
:101130007908AF007808AE007708AD00A2282B121E
:101140001E30BE008316861483128618DE28AB1A62
:10115000DD28BF0BDD28AB16CD30CA00CC30C9006E
:101160004C30C8007B30C7003008CE002F08CD00BF
:101170002E08CC002D08CB008A1143268A15031CAB
:10118000DD2883143008CA002F08C9002E08C800C3
:101190002D08C700CD30CE00CC30CD004C30CC0077
:1011A0007B30CB008A1177228A157A08B000790843
:1011B000AF007808AE007708AD00E128AB121E3012
:1011C000BF008316861583128619FB282B1BFA286D
:1011D000C00BFA282B17AB1FF4280130C7008A1167
:1011E0008E208A15AB13FA280130C7008A118E2091
:1011F0008A15AB17FE282B131E30C000AB1C212A0A
:10120000AB1B13290F30C3000230C4008A11E12048
:101210008A154F30D0008A11F1208A156E30D00027
:101220008A11F1208A1583103C08CA003B08C900C6
:101230003A08C8003908C7003008CE002F08CD0092
:101240002E08CC002D08CB008A1177228A157A0847
:10125000C6007908C5007808C4007708C3004608AE
:10126000CA004508C9004408C8004308C700380838
:10127000CE003708CD003608CC003508CB008A11E7
:1012800043268A15031C5C29F930831687008312D4
:101290000715AB1B5C290C30C3000230C4008A1157
:1012A000E1208A154F30D0008A11F1208A156E3066
:1012B000D0008A11F1208A1583143C08CA003B082B
:1012C000C9003A08C8003908C7003008CE002F0806
:1012D000CD002E08CC002D08CB008A1177228A156C
:1012E0007A08C6007908C5007808C4007708C300EA
:1012F0003808CA003708C9003608C8003508C700D2
:101300004608CE004508CD004408CC004308CB0079
:101310008A1143268A15031CA529F93083168700F4
:1013200083120711AB1BA5290C30C3000230C40087
:101330008A11E1208A154F30D0008A11F1208A15D8
:101340006630D0008A11F1208A152B1DD829F9307A
:101350008316870083128714AB1BBF290C30C30090
:101360000130C4008A11E1208A154F30D0008A1163
:10137000F1208A156E30D0008A11F1208A153C08C0
:10138000CA003B08C9003A08C8003908C700380835
:10139000CE003708CD003608CC003508CB008A11C6
:1013A00043268A150318D629031DD7292B11F029A6
:1013B000F9308316870083128710AB1BF0290C309D
:1013C000C3000130C4008A11E1208A154F30D000DB
:1013D0008A11F1208A156630D0008A11F1208A1511
:1013E00083143C08CA003B08C9003A08C800390801
:1013F000C700CE01CD012030CC008230CB008A1155
:1014000077228A157A08C6007908C5007808C400D2
:101410007708C3003808CA003708C9003608C80072
:101420003508C7004608CE004508CD004408CC006A
:101430004308CB008A1143268A15031C202A2B154A
:10144000562AAB1B562A0F30C3000230C4008A1143
:10145000E1208A154F30D0008A11F1208A156630BC
:10146000D0008A11F1208A150C30C3000130C4006D
:101470008A11E1208A154F30D0008A11F1208A1597
:101480006630D0008A11F1208A150C30C30002307A
:10149000C4008A11E1208A154F30D0008A11F12052
:1014A0008A156630D0008A11F1208A153928630028
:02400E00B23FBF
:00000001FF
;PIC16F877A
;CRC=78E6  CREATED="21-jun-24 20:04"
