:020000040000FA
:020000002628B0
:040002000034003492
:08000800A4000308A5000B1D74
:1000100017280B1183308107A014A60B1728323044
:10002000A6002016A10B172820150230A1002508D4
:1000300083002408090082073F3406345B344F34C0
:1000400066346D347D3407347F346F3483160F305B
:1000500086008801D33081008312A201A301A70189
:10006000A80106128612061386138B168B17A0188A
:100070007120A01D5C28861C5A28201A6D20201D86
:1000800037282011A20A0A302202031C3728A201B5
:10009000A30A0A302302031C3728A301A70A0A3047
:1000A0002702031C3728A701A80A0A3028020318D0
:1000B000A8013728A0113728061C652806193728FB
:1000C000A201A301A701A8013728A0152011201221
:1000D0003230A6000230A100372820127028080014
:1000E0000800A010061E7D28061223081B20A90068
:1000F00080302907880086160800861E852886120B
:1001000027081B20880006170800061F8D280613E5
:1001100028081B20880086170800861322081B2049
:060120008800061608002D
:02400E00723FFF
:00000001FF
