:1000000001308A00B4290000FF00030E8301A10023
:100010000A08A0008A010408A2007708A300780853
:10002000A4007908A5007A08A600831383128B1E0A
:100030001B280B192C28220884002308F700240809
:10004000F8002508F9002608FA0020088A00210E89
:100050008300FF0E7F0E09008A110A122F28271431
:10006000A80B3A28FA30A800A714A90B3A280A309E
:10007000A90027150B118A110A121B28A71000309E
:10008000F8001F08C73978049F000D30F700F70B00
:1000900047281F151F194A2883161E088312BA0005
:1000A0001E08BB000830F8001F08C73978049F00FD
:1000B0000D30F700F70B5A281F151F195D288316FE
:1000C0001E088312B8001E08B9000800F801F901E3
:1000D000F701FA014108031D7028400803198A2816
:1000E0001030C2000310BE0DBF0DF70DFA0D410810
:1000F0007A02031D7D2840087702031C86284008E9
:10010000F702031CFA034108FA020314F80DF90D73
:10011000C20B722808003D08BF003C08BE00033037
:10012000C100E830C00066207808B700B70803199E
:100130009F28E830BC020330031C0430BD023D0898
:10014000BF003C08BE00C1016430C00066207808D2
:10015000B60001303602F73E0318EE28093E252985
:100160006430BC020030031C0130BD02EE28C830F0
:10017000BC020030031C0130BD02EE282C30BC0252
:100180000130031C0230BD02EE289030BC02013069
:10019000031C0230BD02EE28F430BC020130031C07
:1001A0000230BD02EE285830BC020230031C03307E
:1001B000BD02EE28BC30BC020230031C0330BD027D
:1001C000EE282030BC020330031C0430BD02EE28B0
:1001D0008430BC020330031C0430BD023D08BF0064
:1001E0003C08BE00C1010A30C00066207808B50096
:1001F0003508F63E031824290A3E32293C08B4008B
:1002000024290A303C02B400242914303C02B400F2
:1002100024291E303C02B400242928303C02B400BA
:10022000242932303C02B40024293C303C02B40082
:10023000242946303C02B400242950303C02B4004A
:1002400024295A303C02B40008000A148A100A110A
:100250008207B028B728BE28C528CC28D328DA289A
:10026000E128E8280A148A100A118207FE280129C9
:10027000052909290D291129152919291D2921299E
:100280002710061E59290F30831686008312061286
:100290002A303507840083130008BC0083168801C8
:1002A00083123C0888000F3083168600831286165E
:1002B0009E29861E71290F308316860083128612AE
:1002C0002A303607840083130008BC008316880197
:1002D00083123C0888000F308316860083120617AD
:1002E0009E29061F89290F30831686008312061364
:1002F0002A303707840083130008BC008316880166
:1003000083123C0888000F308316860083128617FC
:100310009E290F3083168600831286132A303407F5
:10032000840083130008BC008316880183123C08F4
:1003300088000F3083168600831206168A110A126F
:10034000FA292711A71DAB29A7113908BD003808C4
:10035000BC008B20B129A7153B08BD003A08BC00A2
:100360008B208A110A12FE2903081F3983002710E7
:10037000A7102711A715FA30A8000A30A900831684
:100380001F149F141F159F1107309C0083133F30CB
:100390008312AA000630AB005B30AC004F30AD00DA
:1003A0006630AE006D30AF007D30B0000730B10078
:1003B0007F30B2006F30B30083161F109F101F15DF
:1003C0009F111F1383121F179F1783169F178312E6
:1003D0001F1483160108C0390238810083128B165E
:1003E000C0308B043E203908BD003808BC008B208B
:1003F00027184029A7183E202719A129F8296300AA
:02400E00B13FC0
:00000001FF
;PIC16F877A
;CRC=4AF1  CREATED="30-mai-24 22:58"
