:020000040000FA
:020000001628C0
:040002000034003492
:08000800A7000308A8000B1D6E
:1000100012280B1183308107A414A60B1228FA3082
:10002000A600241428088300270809008316071156
:1000300088010F308600D330810044309F00831246
:10004000C1309F00A001A101A201A301A40186016A
:10005000880107110530AD007D30AA008B168B1783
:10006000A4187D2024183D20061CBA28C320861C15
:10007000C728D220A41DEC20302824109F11132162
:100080001F151F1941281E08AC009F1513211F15AD
:100090001F1948281E08AB0005210C2125187628B9
:1000A000241D78282C08A900A201A101643029028E
:1000B000031C5D28A900A20A56280A302902031C45
:1000C0006428A900A10A5D282908A000A41D3028E1
:1000D0002B082D072C02031C6F28071130282C0831
:1000E0002D072B02031C3028071530282D08532814
:1000F0002B085328A41107113728A410061E8628A0
:1001000006122108AF20880086160800861E8E2859
:1001100086122208AF20880006170800061F9828BC
:100120000613230825189E28241DA128A428A720EB
:1001300086132008AF208800061608000030A7208C
:1001400008000130A72008000230A7200800AB20DB
:10015000861788000800820776346D34733482076E
:100160003F3406345B344F3466346D347D340734A9
:100170007F346F34241A3028AE0B30282416A4198B
:100180007A28A41530283230AE0024120800A41AB0
:100190003028AF0B3028A4162518FF28241D02296B
:1001A000251430283230AF00A4120800241B302858
:1001B000B00B30282417F52030283230B00024133B
:1001C0000800A41B3028B10B3028A417FA203028CF
:1001D0003230B100A4130800251C0800061DD628E3
:1001E000DD20861DE128E82008000A302D02031CCE
:1001F000AD0A080000302D02031DAD0308002510D4
:100200002411302825102415302855302B020318CE
:1002100008005530AB000800B9302B02031C080061
:10022000B930AB0008001430AA00AA0B1529080049
:02400E00723FFF
:00000001FF
