:1000000001308A0095290000FF00030E8301A10042
:100010000A08A0008A010408A2007708A300780853
:10002000A4007908A5007A08A600831383128B1E0A
:100030001B280B192C28220884002308F700240809
:10004000F8002508F9002608FA0020088A00210E89
:100050008300FF0E7F0E09008A110A122F28A80BB9
:1000600034282714FA30A8000B118A110A121B2811
:100070003908003A03194928013A03194F28033A6D
:1000800003195528013A03195C28073A0319622815
:100090006A288316850183123A0885006A28831628
:1000A000860183123A0886006A28F9308316870091
:1000B00083123A0887006A288316880183123A0857
:1000C00088006A28831609108910091183123A08DA
:1000D00089006A2808001A30F700F70B6D28000025
:1000E000831609108312091083160911831209114E
:1000F0000330B9003308BA00382083168910831200
:1001000089141A30F700F70B832800008316891032
:100110008312891008002F3084008313000803190C
:100120009E280230F800F701F70B9428F80B93286B
:100130009730F700F70B9A28800B91280800831658
:100140008910831289103830B3006B200F30AF0054
:100150008B200130B3006B200A30AF008B200C30B5
:10016000B3006B200A30AF008B200630B3006B2049
:100170000A30AF008B208A110A12BE291A30F7000C
:10018000F70BC02800008316091083120914831688
:100190000911831209110330B9003808BA00382058
:1001A00083168910831289141A30F700F70BD628AA
:1001B000000083168910831289100800300BE12893
:1001C000E4284030B100E528B10101302F02B10729
:1001D00031088038B200B3006B200800B701040872
:1001E000B6003710831B3714300EF038B200B20758
:1001F000E23EB300323EB50030080F39B307B30713
:10020000B507E93EB400B407B4072F0E0F39B407A1
:10021000B507B40DB50DB509B50D2F080F39B507E4
:10022000B20D0730B1000A30B507B403031C14291E
:10023000B407B303031C1829B307B203031C1C291A
:10024000B207B103031C2029313084008313073027
:1002500036053613840735300402031936170008B3
:10026000F700031D3B29361B3B29361A4D29B619C9
:100270003B2920303E29B61536123030F707B00141
:100280000408AF003010831B30147708B800BE207C
:100290002F088400831330188317840A361F2B29F4
:1002A000080027100030F8001F08C73978049F00A5
:1002B0001A30F700F70B5A2900001F151F195E2985
:1002C00083161E088312AD001E08AE000430AF0076
:1002D0000230B000DE20013084002E08B0002D086E
:1002E000AF00EE200830F8001F08C73978049F00DF
:1002F0001A30F700F70B7A2900001F151F197E2905
:1003000083161E088312AB001E08AC000430AF0039
:100310000130B000DE20013084002C08B0002B0832
:10032000AF00EE208A110A12142A03081F39830035
:100330002710FA30A800A7102711AA010A30A90037
:1003400083161F149F141F159F1107309C008313E1
:100350001F109F101F159F111F1383121F179F1728
:1003600083169F1783121F1483160108C0390238A1
:10037000810083128B16C0308B049F285330B80045
:10038000BE207030B800BE203A30B800BE20013028
:10039000AF000230B000DE205430B800BE20703014
:1003A000B800BE203A30B800BE200930AF0001309E
:1003B000B000DE204630B800BE206E30B800BE204F
:1003C0003A30B800BE200930AF000230B000DE2065
:1003D0004830B800BE207430B800BE203A30B800B3
:1003E000BE200F30AF000230B000DE204F30B8002A
:1003F000BE206630B800BE200C30AF000130B00027
:10040000DE204F30B800BE206630B800BE200C3071
:10041000AF000230B000DE204F30B800BE206630A2
:10042000B800BE2027185129061CA7148618232AB5
:10043000A7102711F930831687008312071183163E
:10044000870083128710A71CB72A0F30AF00023035
:10045000B000DE204F30B800BE206E30B800BE20A5
:1004600029082D07AF002E08B0002A0803182A0F0C
:10047000B00730082C02031C532A031D432A2B0803
:100480002F020318532AF9308316870083120715A9
:100490000C30AF000230B000DE204F30B800BE207C
:1004A0006E30B800BE2029082D02AF002E08B00023
:1004B0002A08031C2A0FB0022C083002031C762ADB
:1004C000031D662A2F082B020318762AF93083169B
:1004D0008700831207110C30AF000230B000DE201D
:1004E0004F30B800BE206630B800BE20271D932ACA
:1004F000F93083168700831287140C30AF00013067
:10050000B000DE204F30B800BE206E30B800BE20F4
:100510002E082C02031C922A031D912A2D082B025F
:1005200003182711A32AF930831687008312871036
:100530000C30AF000130B000DE204F30B800BE20DC
:100540006630B800BE2014302D02AF002E08B00077
:100550000030031C0130B0022C083002031CB62A04
:10056000031DB52A2F082B02031C2715D82A0F308C
:10057000AF000230B000DE204F30B800BE20663041
:10058000B800BE200C30AF000130B000DE204F308C
:10059000B800BE206630B800BE200C30AF0002307C
:1005A000B000DE204F30B800BE206630B800BE205C
:0405B000122A6300A8
:02400E00B23FBF
:00000001FF
;PIC16F877A
;CRC=DAE7  CREATED="31-mai-24 23:14"
